:100000000C9449010C947A010C947A010C947A01B5
:100010000C947A010C947A010C947A010C947A0174
:100020000C947A010C947A010C947A010C947A0164
:100030000C947A010C947A010C947A010C947A0154
:100040000C947A010C947A010C947A010C947A0144
:100050000C947A010C947A010C947A010C94C707E1
:100060000C947A010C9473090C94630A0C947A0131
:100070000C947A010C947A010C947A010C947A0114
:100080000C947A010C947A010C947A010C947A0104
:100090000C94A7090C94A20A0C947A010C94D7052D
:1000A0000C947A010C947A010C947A010C947A01E4
:1000B0000C947A010C947A010C947A010C947A01D4
:1000C0000C947A010C947A010C947A010C94DB095B
:1000D0000C94E10A0C947A010C940F0A0C94200BF6
:1000E0000C947A011D0720071307170757072407E9
:1000F00028072E07320736073C07400744075707F3
:100100004A074E0752070C94230D0C94C8080C9410
:100110001D070C9436070C943E040C9417070C949E
:10012000E00B0C9440070C9428070C944E040C949C
:100130007B040C944D040C94F5040C9420070C944F
:10014000420A0C944A070C9452070C943C070C94F6
:10015000F1080C9423040C9424070C942E070C949F
:10016000D8080C9432070C9411090C941C090C94B7
:100170003D020C944E070C9444070C942B040C94F1
:1001800013070C9457070000090A02080B0C0D070F
:100190000603040100000000000000000000000051
:1001A000000000000000000000000000000000004F
:1001B000000011100F00000000000000000000000F
:1001C00000000000000000000000000001021020FC
:1001D000200808102040102040800201020108047D
:1001E0000201010204081020408080402010080411
:1001F000020180040201804020100804020108046A
:1002000002010102040810204080010204081020AD
:1002100040800505050507050808080802020202D6
:100220000A0A080804040404010101010101010192
:100230000303030303030303040707070C0C0C0C5D
:100240000C0C0C0C02020202060606060606060646
:100250000B0B0B0B0B0B0B0B0000220025002800D7
:100260002B002E00310034000201000005010801BE
:100270000B0100002100240027002A002D0030007F
:10028000330001010000040107010A013D02F504E9
:10029000E00B11241FBECFEFD1E2DEBFCDBF00E0E7
:1002A0000CBF12E0A0E0B2E0EAE9FBE100E00BBF26
:1002B00002C007900D92A43CB107D9F727E0A4EC47
:1002C000B2E001C01D92A631B207E1F712E0C2E927
:1002D000D2E000E006C022970109FE010BBF0E9498
:1002E000A40DCC38D10780E00807A9F70E94160DAD
:1002F0000C94CB0D0C94000061E08DE00E94580737
:1003000040E855E260E070E084ED94E00E945F0B0D
:1003100064EF71E080E090E00E94400860E172E0EC
:1003200084EC92E00E94040485EA93E00E94BA04FF
:100330000E94110868577C4E8F4F9F4F6093A10316
:100340007093A2038093A3039093A40308950F9343
:100350001F930E9411080091FD021091FE0220914E
:10036000FF02309100036017710782079307C0F006
:1003700061E08091FC02811160E06093FC028DE0FD
:100380000E9491070E94110866507F4F8F4F9F4F28
:100390006093FD027093FE028093FF02909300032E
:1003A0001F910F9108950F931F93CF93DF930E9496
:1003B00011080091A1031091A2032091A303309191
:1003C000A403601771078207930718F184EC92E089
:1003D0000E947803C0E0D2E008E013E069917991CF
:1003E000A80184EC92E00E94D503025E1F4F82E0D8
:1003F000C830D80799F70E94110868577C4E8F4F74
:100400009F4F6093A1037093A2038093A3039093E3
:10041000A403DF91CF911F910F91089581E0809304
:100420000103E0910603F0910703EE0FFF1FE85F61
:10043000FD4F6081718185EA93E00E94DD04E091C7
:10044000A503F091A6030190F081E02D62E785EA13
:1004500093E0199585EA93E00E94F2040E94110846
:1004600068517C4F8F4F9F4F60930203709303033B
:100470008093040390930503089584EC92E00C9418
:100480001E03109282038EE1E3E8F3E0DF011D9288
:100490008A95E9F7E0910603F0910703EE0FFF1F3D
:1004A000E85FFD4F6081718121E030E040E350E082
:1004B00085EA93E00E94D10485EA93E00E942B0430
:1004C0008093810385EA93E00E942304892BC1F085
:1004D00085EA93E00E942B0480938003811105C07C
:1004E00085EA93E00E94F2040BC090918203E92F09
:1004F000F0E0ED57FC4F80839F5F90938203E2CF43
:1005000080918103823031F190F4813009F043C051
:1005100020910603309107034EE1429FC001439FA3
:10052000900D11244DE150E063E873E030C08E3F40
:1005300001F18F3F81F520910603309107034EE1D1
:10054000429FC001439F900D11244DE150E066E4AD
:1005500072E01DC020910603309107034EE1429FD7
:10056000C001439F900D11244DE150E06EE172E017
:100570000EC020910603309107034EE1429FC00157
:10058000439F900D11244DE150E064E372E0885FD9
:100590009C4F0E94BC0D1092010308950F931F936E
:1005A00080910103882399F00E94110800910203B1
:1005B0001091030320910403309105036017710724
:1005C00082079307A8F01F910F910C94410280912C
:1005D000060390910703019664E070E00E94680DA5
:1005E00090930703809306031F910F910C940E02C2
:1005F0001F910F9108950E94CE020E94D3010C9486
:10060000A7016115710581F0DB010D900020E9F76C
:10061000AD0141505109461B570BDC01ED91FC9196
:100620000280F381E02D199480E090E00895DC01D0
:10063000ED91FC910190F081E02D1994FC01108264
:100640001182128213AA14AA15AA16AA17AA08952B
:10065000FC011282808190E0019742E0242F30E07B
:1006600028173907C4F4DF01A20FB31F93962C910A
:100670002D3F39F44F5FDF01A40FB11D93962C91EC
:1006800023503281DF01A30FB11D13962C933F5FDE
:1006900032834F5FE3CF0895FC0114AA43A980E0A1
:1006A00090E05DEF8417D0F4DF01A80FB91F5396D7
:1006B0002C9134A9DF01A30FB11D2D3F40F093967B
:1006C0005C933F5F34ABDF01A30FB11D2D5F9396A9
:1006D0002C9324A92F5F24AB0196E4CF62E672E04D
:1006E00084ED94E00E94010384ED94E00C94540D99
:1006F000CF93DF93EC0184ED94E00E94C8081816B4
:100700001906FCF484ED94E00E94F1088E3F19F480
:10071000188291E09DAB9DA9992339F09881FE0143
:10072000E90FF11D83A39F5F98838F3F51F41DAAAA
:1007300081E08FAB8CA18983CE01DF91CF910C94A6
:100740002803DF91CF910895CF93DF93EC010E94AE
:100750004C036EEF70E084ED94E00E9417036BA9E8
:1007600084ED94E00E941C09E091D404F091D5043A
:100770004CA950E0BE016D5D7F4F0280F381E02DFA
:1007800084ED94E019956FEF70E084ED94E00E94A1
:10079000170366E872E084ED94E00E94010384EDA3
:1007A00094E0DF91CF910C94540DEF92FF920F9350
:1007B0001F93CF93DF93EC018B017A011BAA4DE0CD
:1007C00050E0B701C7010E94BC0DF80180818B8BFE
:1007D00081818C8B82818D8BF70183E090E0219168
:1007E000DE01A80FB91F53962C9301968031910515
:1007F000B1F780E18BABCE01DF91CF911F910F91CB
:10080000FF90EF900C94A403CF93DF93EB016EEF76
:1008100070E084ED94E00E94170360E084ED94E0C2
:100820000E941C09BE0184ED94E00E944B0D6FEF05
:1008300070E084ED94E00E94170384ED94E0DF9172
:10084000CF910C94540D8091D50390E02091D60364
:10085000821B910908952091D6038091D503281712
:1008600050F4E22FF0E0E952FC4F808190E02F5FDE
:100870002093D60308958FEF9FEF0895E091D6035C
:100880008091D503E81730F4F0E0E952FC4F808105
:1008900090E008958FEF9FEF08950895CF92DF9233
:1008A000EF92FF920F931F93CF93DF937C01CB01C5
:1008B0008A012091B103222389F0EB016B01C40E60
:1008C000D51ECC15DD0569F06991D701ED91FC913C
:1008D0000190F081E02DC7011995F3CF642F0E949C
:1008E000AE05C801DF91CF911F910F91FF90EF905E
:1008F000DF90CF900895CF93DF931F92CDB7DEB7EF
:1009000069832091B1032223D1F02091B2032032D8
:1009100040F021E030E0FC013383228380E090E06E
:1009200015C08091B303E82FF0E0EC54FC4F99819F
:1009300090838F5F8093B3038093B20305C061E01F
:10094000CE0101960E94AE0581E090E00F90DF910C
:10095000CF910895FC011382128248EE53E060E0CB
:1009600070E0448355836683778387EA92E09183BE
:10097000808308951092D6031092D5031092B3038A
:100980001092B2030C94F904862F413208F040E231
:1009900067ED73E00E9417051092D6038093D5038C
:1009A00008950C94C40481E08093B1036093D40350
:1009B0001092B3031092B20308950C94D3040F93D2
:1009C000062F21E04091B20364EB73E08091D403E1
:1009D0000E945B051092B3031092B2031092B10310
:1009E0000F91089561E00C94DF0485EA93E00C9484
:1009F000AA041092640481E080936204109261045E
:100A000061E084E10E94910761E085E10E94910725
:100A1000E9EBF0E080818E7F808380818D7F808311
:100A200088E48093B80085E48093BC000895413247
:100A300008F03FC0909164049111FCCF91E0909335
:100A40006404209362042FEF2093F70310923C0478
:100A5000240F20933B049093630490916304880FC8
:100A6000892B8093630480916104813041F410925A
:100A70006104809163048093BB0085EC01C085EE26
:100A80008093BC00809164048130E1F380913C0448
:100A9000841710F440913C042DE334E0FB01D901AC
:100AA0008A2F821B841718F48D918193F9CF842F9C
:100AB000089580E008950F93413208F046C0909168
:100AC00064049111FCCF92E090936404009362045B
:100AD0009FEF9093F70310923C0440933B04FB017B
:100AE0006DE374E0DB019A2F961B941718F4919133
:100AF0009D93F9CF1092630490916304880F892B22
:100B00008093630480916104813041F41092610408
:100B1000809163048093BB0085EC01C085EE8093D7
:100B2000BC00222321F0809164048230E1F38091A3
:100B3000F7038F3F61F08091F703803251F080918D
:100B4000F703803341F483E007C081E005C080E013
:100B500003C082E001C084E00F910895613298F4EF
:100B600020916404243089F460931904FC018BE122
:100B700094E0DC012A2F281B261718F421912D93CD
:100B8000F9CF80E0089581E0089582E0089585ED31
:100B90008093BC008091BC0084FDFCCF1092640463
:100BA000089585EC8093BC001092640408951F9210
:100BB0000F920FB60F9211240BB60F922F933F9303
:100BC0004F935F936F937F938F939F93AF93BF9355
:100BD000EF93FF938091B900887F803609F49CC021
:100BE00068F5883209F45BC090F4803109F454C090
:100BF00038F4882309F4F5C0883009F44DC0F5C0F5
:100C0000883109F44CC0803209F45DC0EEC08034F4
:100C100009F468C048F4803309F455C0883309F0FA
:100C2000E4C08093F703A8C0803509F44FC088352D
:100C300009F45DC0883409F0D8C0D5C0883909F4FA
:100C4000C6C0A8F4883709F467C038F4883609F4B8
:100C500063C0803709F460C0C8C0883809F4B7C0E1
:100C6000803909F45FC0803809F0BFC05BC0803BA9
:100C700009F485C038F4803A09F466C0883A09F46A
:100C80007EC0B3C0803C09F4A6C0883C09F4A3C070
:100C9000883B09F489C0A9C08091630410C0909179
:100CA0003C0480913B04981770F5E0913C0481E08E
:100CB0008E0F80933C04F0E0E35CFB4F80818093D7
:100CC000BB0085EC85C08093F7038DC0E0913C04A8
:100CD00081E08E0F80933C048091BB00F0E0E35CE8
:100CE000FB4F808390913C0480913B046DC0E09168
:100CF0003C0481E08E0F80933C048091BB00F0E0C7
:100D0000E35CFB4F80838091620481116CC081E0C1
:100D10008093610484EA60C083E08093640410924D
:100D2000F803CFCF8091F803803208F050C0E091F3
:100D3000F80381E08E0F8093F8038091BB00F0E010
:100D4000E750FC4F8083BDCF8091F803803230F4B0
:100D5000E091F803F0E0E750FC4F10820E94C705D5
:100D60006091F80370E0E0915D04F0915E0489EF1A
:100D700093E019951092F8030E94D10536C084E0E3
:100D80008093640410921A0410921904E0915F0495
:100D9000F0916004199580911904811105C081E0DA
:100DA0008093190410921B04E0911A0481E08E0FC5
:100DB00080931A04F0E0E55EFB4F80818093BB00D6
:100DC00090911A0480911904981708F47ACF85E855
:100DD0008093BC000AC085EC8093BC001092640430
:100DE00004C01092F7030E94C705FF91EF91BF91D5
:100DF000AF919F918F917F916F915F914F913F91B3
:100E00002F910F900BBE0F900FBE0F901F90189553
:100E100090E0FC013197E131F10508F048C0EE584F
:100E2000FF4F0C949E0D809180008F7703C08091BE
:100E300080008F7D80938000089584B58F7702C0F5
:100E400084B58F7D84BD08958091B0008F7703C0F5
:100E50008091B0008F7D8093B000089580919000C4
:100E60008F7707C0809190008F7D03C080919000A4
:100E7000877F8093900008958091A0008F7707C0AE
:100E80008091A0008F7D03C08091A000877F809318
:100E9000A0000895809120018F7707C080912001E4
:100EA0008F7D03C080912001877F8093200108956A
:100EB000CF93DF9390E0FC01E453FE4F2491FC01BB
:100EC000EE5EFD4F8491882349F190E0880F991FD1
:100ED000FC01EE58FD4FA591B491885A9D4FFC013D
:100EE000C591D4919FB7611108C0F8948C91209559
:100EF00082238C93888182230AC0623051F4F89453
:100F00008C91322F309583238C938881822B888318
:100F100004C0F8948C91822B8C939FBFDF91CF916A
:100F200008950F931F93CF93DF931F92CDB7DEB732
:100F3000282F30E0F901EA57FE4F8491F901E4537C
:100F4000FE4F1491F901EE5EFD4F04910023C9F0AC
:100F5000882321F069830E9408076981E02FF0E06F
:100F6000EE0FFF1FE85AFD4FA591B4919FB7F8947B
:100F70008C91611103C01095812301C0812B8C934A
:100F80009FBF0F90DF91CF911F910F9108951F92F6
:100F90000F920FB60F9211242F933F938F939F932D
:100FA000AF93BF938091660490916704A091680409
:100FB000B09169043091650423E0230F2D3720F4AC
:100FC0000196A11DB11D05C026E8230F0296A11DA3
:100FD000B11D209365048093660490936704A093E9
:100FE0006804B093690480916A0490916B04A091A5
:100FF0006C04B0916D040196A11DB11D80936A042B
:1010000090936B04A0936C04B0936D04BF91AF9167
:101010009F918F913F912F910F900FBE0F901F9036
:1010200018952FB7F89460916604709167048091C9
:101030006804909169042FBF08953FB7F894809198
:101040006A0490916B04A0916C04B0916D0426B574
:10105000A89B05C02F3F19F00196A11DB11D3FBFF0
:101060006627782F892F9A2F620F711D811D911D80
:1010700042E0660F771F881F991F4A95D1F70895A0
:10108000CF92DF92EF92FF92CF93DF936B017C01BF
:101090000E941D08EB01C114D104E104F10479F0B0
:1010A0000E941D086C1B7D0B683E7340A0F381E01D
:1010B000C81AD108E108F108C851DC4FECCFDF9124
:1010C000CF91FF90EF90DF90CF900895789484B502
:1010D000826084BD84B5816084BD85B5826085BD34
:1010E00085B5816085BDEEE6F0E08081816080831A
:1010F000E1E8F0E0108280818260808380818160FD
:101100008083E0E8F0E0808181608083E1EBF0E0C3
:10111000808184608083E0EBF0E080818160808367
:10112000E1E9F0E08081826080838081816080835A
:10113000E0E9F0E0808181608083E1EAF0E0808195
:1011400082608083808181608083E0EAF0E080813A
:1011500081608083E1E2F1E0808182608083808130
:1011600081608083E0E2F1E0808181608083EAE752
:10117000F0E08081846080838081826080838081D0
:10118000816080838081806880831092C10008958F
:10119000FC0124853585F901E05CFF4F8081918158
:1011A000329620813181821B930B8F73992708958A
:1011B000FC0184859585FC01E05CFF4F40815181F5
:1011C0003296208131814217530741F00190F0811E
:1011D000E02DE80FF91F808190E008958FEF9FEFD9
:1011E0000895FC0184859585FC01E05CFF4F4081FA
:1011F00051813296208131814217530779F0A081C5
:10120000B181A80FB91F8C91208131812F5F3F4F91
:101210002F7333273183208390E008958FEF9FEF62
:101220000895FC0181A1882329F0A489B5898C91B6
:1012300086FFFBCF11A20895CF93DF93FC01268593
:101240003785D901A05CBF4F8D919C911197019674
:101250008F739927E901CE5BDF4F4881598184174D
:101260009507D9F30D90BC91A02DA20FB31F6C93DD
:10127000A685B785A05CBF4F11969C938E93A689D7
:10128000B7892C9181E090E0078C02C0880F991FEC
:101290000A94E2F7282B2C9381E081A30488F58936
:1012A000E02D80818064808381E090E0DF91CF91A8
:1012B0000895FB01E05CFF4F208131812F5F3F4F9C
:1012C0002F733327DB01AE5BBF4F4D915C91241729
:1012D000350739F0A081B181A60FB71F8C933183F8
:1012E0002083089508951F920F920FB60F92112434
:1012F0000BB60F922F933F934F935F936F937F9310
:101300008F939F93AF93BF93EF93FF938091C00010
:1013100082FD07C08091C60062ED76E00E94590907
:1013200002C08091C600FF91EF91BF91AF919F9154
:101330008F917F916F915F914F913F912F910F907E
:101340000BBE0F900FBE0F901F90189508951F921F
:101350000F920FB60F9211240BB60F922F933F935B
:101360004F935F936F937F938F939F93AF93BF93AD
:10137000EF93FF938091C80082FD07C08091CE005B
:101380006AE476E00E94590902C08091CE00FF9184
:10139000EF91BF91AF919F918F917F916F915F91ED
:1013A0004F913F912F910F900BBE0F900FBE0F905A
:1013B0001F90189508951F920F920FB60F92112447
:1013C0000BB60F922F933F934F935F936F937F933F
:1013D0008F939F93AF93BF93EF93FF938091D00030
:1013E00082FD07C08091D60062EC75E00E94590929
:1013F00002C08091D600FF91EF91BF91AF919F9174
:101400008F917F916F915F914F913F912F910F90AD
:101410000BBE0F900FBE0F901F90189508951F924E
:101420000F920FB60F9211240BB60F922F933F938A
:101430004F935F936F937F938F939F93AF93BF93DC
:10144000EF93FF938091300182FD07C080913601B8
:101450006AE375E00E94590902C080913601FF914C
:10146000EF91BF91AF919F918F917F916F915F911C
:101470004F913F912F910F900BBE0F900FBE0F9089
:101480001F90189584ED94E00E94C808892B11F0F4
:101490000E94720982EB94E00E94C808892B11F027
:1014A0000E94A60980E994E00E94C808892B11F0E7
:1014B0000E94DA098EE694E00E94C808892B11F098
:1014C0000C940E0A08951F920F920FB60F921124DA
:1014D0000BB60F922F933F938F939F93EF93FF93AE
:1014E0002091CE063091CF068091D0069091D10602
:1014F0002817390731F48091C1008F7D8093C10096
:1015000014C0E091D006F091D106E257F94F208146
:101510008091D0069091D10601968F739927909370
:10152000D1068093D0062093C600FF91EF919F9142
:101530008F913F912F910F900BBE0F900FBE0F9088
:101540001F9018951F920F920FB60F9211240BB691
:101550000F922F933F938F939F93EF93FF9320913D
:101560004606309147068091480690914906281713
:10157000390731F48091C9008F7D8093C90014C070
:10158000E0914806F0914906EA5FF94F2081809189
:1015900048069091490601968F73992790934906C2
:1015A000809348062093CE00FF91EF919F918F91F9
:1015B0003F912F910F900BBE0F900FBE0F901F9079
:1015C00018951F920F920FB60F9211240BB60F921F
:1015D0002F933F938F939F93EF93FF932091BE059B
:1015E0003091BF058091C0059091C105281739073A
:1015F00031F48091D1008F7D8093D10014C0E091AF
:10160000C005F091C105E258FA4F20818091C005D4
:101610009091C10501968F7399279093C10580938E
:10162000C0052093D600FF91EF919F918F913F913C
:101630002F910F900BBE0F900FBE0F901F9018951B
:101640001F920F920FB60F9211240BB60F922F9389
:101650003F938F939F93EF93FF93209136053091A3
:10166000370580913805909139052817390731F4ED
:10167000809131018F7D8093310114C0E091380554
:10168000F0913905EA50FB4F208180913805909107
:10169000390501968F739927909339058093380502
:1016A00020933601FF91EF919F918F913F912F9160
:1016B0000F900BBE0F900FBE0F901F901895CF92FA
:1016C000DF92EF92FF92CF93DF93EC016A017B01EF
:1016D000411581EE580761057105F9F0EC89FD8926
:1016E00081E090E008A002C0880F991F0A94E2F7F9
:1016F000808360E079E08DE390E0A70196010E948D
:101700007C0D21503109410951095695479537956E
:101710002795211580E1380798F0EC89FD89108222
:1017200060E874E88EE190E0A70196010E947C0DCC
:10173000215031094109510956954795379527950B
:10174000E889F9893083EA89FB89208319A2EE8927
:10175000FF89408181E090E09C010C8C02C0220F47
:10176000331F0A94E2F7422B4083EE89FF894081C0
:101770009C010D8C02C0220F331F0A94E2F7422B0A
:101780004083EE89FF8940819C010E8C02C0220FAC
:10179000331F0A94E2F7422B4083EE89FF892081B0
:1017A0000F8C02C0880F991F0A94E2F7809582235C
:1017B0008083DF91CF91FF90EF90DF90CF900895DD
:1017C000CF931092D7041092D60488EE93E0A0E055
:1017D000B0E08093D8049093D904A093DA04B09336
:1017E000DB0427EB32E03093D5042093D40442EDA0
:1017F00056E05093E1044093E0044EE856E05093E5
:10180000E3044093E20445EC50E05093E504409338
:10181000E40444EC50E05093E7044093E60440ECC9
:1018200050E05093E9044093E80441EC50E05093B9
:10183000EB044093EA0442EC50E05093ED044093F3
:10184000EC0446EC50E05093EF044093EE04C4E007
:10185000C093F004F3E0F093F104E7E0E093F204C6
:1018600075E07093F30461E06093F4041092B504A2
:101870001092B4048093B6049093B704A093B80474
:10188000B093B9043093B3042093B2044AE456E011
:101890005093BF044093BE0446E056E05093C10409
:1018A0004093C0044DEC50E05093C3044093C204F5
:1018B0004CEC50E05093C5044093C40448EC50E015
:1018C0005093C7044093C60449EC50E05093C904B8
:1018D0004093C8044AEC50E05093CB044093CA04B0
:1018E0004EEC50E05093CD044093CC04C093CE0412
:1018F000F093CF04E093D0047093D1046093D204AA
:1019000010929304109292048093940490939504FF
:10191000A0939604B093970430939104209390047D
:1019200042EC55E050939D0440939C044EE755E0F3
:1019300050939F0440939E0445ED50E05093A104C2
:101940004093A00444ED50E05093A3044093A204BC
:1019500040ED50E05093A5044093A40441ED50E0C5
:101960005093A7044093A60442ED50E05093A9047D
:101970004093A80446ED50E05093AB044093AA0472
:10198000C093AC04F093AD04E093AE047093AF0445
:101990006093B004109271041092700480937204EA
:1019A00090937304A0937404B093750430936F0400
:1019B00020936E048AE395E090937B0480937A04ED
:1019C00086EF94E090937D0480937C0485E391E01E
:1019D00090937F0480937E0484E391E0909381044C
:1019E0008093800480E391E0909383048093820449
:1019F00081E391E0909385048093840482E391E0F5
:101A0000909387048093860486E391E09093890401
:101A100080938804C0938A04F0938B04E0938C0431
:101A200070938D0460938E04CF9108950E94660890
:101A30000E947C01C2E4DAE00E94FB022097E1F3FD
:101A40000E94420AF9CFCF92DF92EF92FF920F935A
:101A50001F93CF93DF936C017A01EB01E60EF71E23
:101A600000E010E0CE15DF0561F06991D601ED913F
:101A7000FC910190F081E02DC6011995080F191F06
:101A8000F1CFC801DF91CF911F910F91FF90EF909F
:101A9000DF90CF9008950C940103DC01ED91FC914F
:101AA0000190F081E02D19940F931F93CF93DF9352
:101AB000EC016DE00E944D0D8C016AE0CE010E94A8
:101AC0004D0D800F911FDF91CF911F910F910895C0
:101AD00097FB072E16F4009407D077FD09D00E94DB
:101AE000A80D07FC05D03EF4909581959F4F089571
:101AF000709561957F4F0895A1E21A2EAA1BBB1B1A
:101B0000FD010DC0AA1FBB1FEE1FFF1FA217B307C9
:101B1000E407F50720F0A21BB30BE40BF50B661FDF
:101B2000771F881F991F1A9469F7609570958095A3
:101B300090959B01AC01BD01CF010895EE0FFF1FF1
:101B40000590F491E02D19940790F691E02D1994E9
:101B5000AA1BBB1B51E107C0AA1FBB1FA617B707D3
:101B600010F0A61BB70B881F991F5A95A9F78095EF
:101B70009095BC01CD010895FB01DC01415050401E
:101B800048F001900D920020C9F701C01D9241500C
:0A1B90005040E0F70895F894FFCFED
:101B9A00550258025C025F02610062006300640041
:101BAA0041726475696E6F2052656164790065726D
:101BBA00726F723A20636F6D6D616E64206661693F
:101BCA006C65640072656164696E67206E6F74206B
:101BDA007265616479006572726F723A206E6F2065
:101BEA006461746100444F004F52500050480045F0
:101BFA0043002D2D2D2D2D2D2D2D2D2D626F74741D
:101C0A006F6D206F6620656E636F646548696768EB
:101C1A004279746573002D2D2D2D2D2D2D2D2D2DF1
:101C2A00626F74746F6D206F662064617461546FA3
:101C3A00504300000000007B044E0423042B043EA2
:101C4A00044D04000000001C09230DC808F108D83F
:041C5A000811090064
:00000001FF
